{
  "address": "0x7eA9940d57f8d6Fd2ca4212884284A66984B7500",
  "abi": [
    {
      "inputs": [
        {
          "internalType": "address",
          "name": "_owner",
          "type": "address"
        }
      ],
      "stateMutability": "nonpayable",
      "type": "constructor"
    },
    {
      "anonymous": false,
      "inputs": [
        {
          "indexed": true,
          "internalType": "address",
          "name": "owner",
          "type": "address"
        },
        {
          "indexed": true,
          "internalType": "address",
          "name": "approved",
          "type": "address"
        },
        {
          "indexed": true,
          "internalType": "uint256",
          "name": "tokenId",
          "type": "uint256"
        }
      ],
      "name": "Approval",
      "type": "event"
    },
    {
      "anonymous": false,
      "inputs": [
        {
          "indexed": true,
          "internalType": "address",
          "name": "owner",
          "type": "address"
        },
        {
          "indexed": true,
          "internalType": "address",
          "name": "operator",
          "type": "address"
        },
        {
          "indexed": false,
          "internalType": "bool",
          "name": "approved",
          "type": "bool"
        }
      ],
      "name": "ApprovalForAll",
      "type": "event"
    },
    {
      "anonymous": false,
      "inputs": [
        {
          "indexed": true,
          "internalType": "address",
          "name": "greetingSetter",
          "type": "address"
        },
        {
          "indexed": false,
          "internalType": "string",
          "name": "newGreeting",
          "type": "string"
        },
        {
          "indexed": false,
          "internalType": "bool",
          "name": "premium",
          "type": "bool"
        },
        {
          "indexed": false,
          "internalType": "uint256",
          "name": "value",
          "type": "uint256"
        }
      ],
      "name": "GreetingChange",
      "type": "event"
    },
    {
      "anonymous": false,
      "inputs": [
        {
          "indexed": true,
          "internalType": "address",
          "name": "previousOwner",
          "type": "address"
        },
        {
          "indexed": true,
          "internalType": "address",
          "name": "newOwner",
          "type": "address"
        }
      ],
      "name": "OwnershipTransferred",
      "type": "event"
    },
    {
      "anonymous": false,
      "inputs": [
        {
          "indexed": true,
          "internalType": "address",
          "name": "from",
          "type": "address"
        },
        {
          "indexed": true,
          "internalType": "address",
          "name": "to",
          "type": "address"
        },
        {
          "indexed": true,
          "internalType": "uint256",
          "name": "tokenId",
          "type": "uint256"
        }
      ],
      "name": "Transfer",
      "type": "event"
    },
    {
      "inputs": [
        {
          "internalType": "address",
          "name": "to",
          "type": "address"
        },
        {
          "internalType": "uint256",
          "name": "tokenId",
          "type": "uint256"
        }
      ],
      "name": "approve",
      "outputs": [],
      "stateMutability": "nonpayable",
      "type": "function"
    },
    {
      "inputs": [
        {
          "internalType": "address",
          "name": "owner",
          "type": "address"
        }
      ],
      "name": "balanceOf",
      "outputs": [
        {
          "internalType": "uint256",
          "name": "",
          "type": "uint256"
        }
      ],
      "stateMutability": "view",
      "type": "function"
    },
    {
      "inputs": [
        {
          "internalType": "uint256",
          "name": "tokenId",
          "type": "uint256"
        }
      ],
      "name": "getApproved",
      "outputs": [
        {
          "internalType": "address",
          "name": "",
          "type": "address"
        }
      ],
      "stateMutability": "view",
      "type": "function"
    },
    {
      "inputs": [],
      "name": "greeting",
      "outputs": [
        {
          "internalType": "string",
          "name": "",
          "type": "string"
        }
      ],
      "stateMutability": "view",
      "type": "function"
    },
    {
      "inputs": [
        {
          "internalType": "address",
          "name": "owner",
          "type": "address"
        },
        {
          "internalType": "address",
          "name": "operator",
          "type": "address"
        }
      ],
      "name": "isApprovedForAll",
      "outputs": [
        {
          "internalType": "bool",
          "name": "",
          "type": "bool"
        }
      ],
      "stateMutability": "view",
      "type": "function"
    },
    {
      "inputs": [
        {
          "internalType": "address",
          "name": "to",
          "type": "address"
        }
      ],
      "name": "mint",
      "outputs": [],
      "stateMutability": "nonpayable",
      "type": "function"
    },
    {
      "inputs": [],
      "name": "name",
      "outputs": [
        {
          "internalType": "string",
          "name": "",
          "type": "string"
        }
      ],
      "stateMutability": "view",
      "type": "function"
    },
    {
      "inputs": [],
      "name": "owner",
      "outputs": [
        {
          "internalType": "address",
          "name": "",
          "type": "address"
        }
      ],
      "stateMutability": "view",
      "type": "function"
    },
    {
      "inputs": [
        {
          "internalType": "uint256",
          "name": "tokenId",
          "type": "uint256"
        }
      ],
      "name": "ownerOf",
      "outputs": [
        {
          "internalType": "address",
          "name": "",
          "type": "address"
        }
      ],
      "stateMutability": "view",
      "type": "function"
    },
    {
      "inputs": [],
      "name": "premium",
      "outputs": [
        {
          "internalType": "bool",
          "name": "",
          "type": "bool"
        }
      ],
      "stateMutability": "view",
      "type": "function"
    },
    {
      "inputs": [],
      "name": "renounceOwnership",
      "outputs": [],
      "stateMutability": "nonpayable",
      "type": "function"
    },
    {
      "inputs": [
        {
          "internalType": "address",
          "name": "from",
          "type": "address"
        },
        {
          "internalType": "address",
          "name": "to",
          "type": "address"
        },
        {
          "internalType": "uint256",
          "name": "tokenId",
          "type": "uint256"
        }
      ],
      "name": "safeTransferFrom",
      "outputs": [],
      "stateMutability": "nonpayable",
      "type": "function"
    },
    {
      "inputs": [
        {
          "internalType": "address",
          "name": "from",
          "type": "address"
        },
        {
          "internalType": "address",
          "name": "to",
          "type": "address"
        },
        {
          "internalType": "uint256",
          "name": "tokenId",
          "type": "uint256"
        },
        {
          "internalType": "bytes",
          "name": "data",
          "type": "bytes"
        }
      ],
      "name": "safeTransferFrom",
      "outputs": [],
      "stateMutability": "nonpayable",
      "type": "function"
    },
    {
      "inputs": [
        {
          "internalType": "address",
          "name": "operator",
          "type": "address"
        },
        {
          "internalType": "bool",
          "name": "approved",
          "type": "bool"
        }
      ],
      "name": "setApprovalForAll",
      "outputs": [],
      "stateMutability": "nonpayable",
      "type": "function"
    },
    {
      "inputs": [
        {
          "internalType": "string",
          "name": "_newGreeting",
          "type": "string"
        }
      ],
      "name": "setGreeting",
      "outputs": [],
      "stateMutability": "payable",
      "type": "function"
    },
    {
      "inputs": [
        {
          "internalType": "bytes4",
          "name": "interfaceId",
          "type": "bytes4"
        }
      ],
      "name": "supportsInterface",
      "outputs": [
        {
          "internalType": "bool",
          "name": "",
          "type": "bool"
        }
      ],
      "stateMutability": "view",
      "type": "function"
    },
    {
      "inputs": [],
      "name": "symbol",
      "outputs": [
        {
          "internalType": "string",
          "name": "",
          "type": "string"
        }
      ],
      "stateMutability": "view",
      "type": "function"
    },
    {
      "inputs": [
        {
          "internalType": "uint256",
          "name": "tokenId",
          "type": "uint256"
        }
      ],
      "name": "tokenURI",
      "outputs": [
        {
          "internalType": "string",
          "name": "",
          "type": "string"
        }
      ],
      "stateMutability": "view",
      "type": "function"
    },
    {
      "inputs": [],
      "name": "totalCounter",
      "outputs": [
        {
          "internalType": "uint256",
          "name": "",
          "type": "uint256"
        }
      ],
      "stateMutability": "view",
      "type": "function"
    },
    {
      "inputs": [
        {
          "internalType": "address",
          "name": "from",
          "type": "address"
        },
        {
          "internalType": "address",
          "name": "to",
          "type": "address"
        },
        {
          "internalType": "uint256",
          "name": "tokenId",
          "type": "uint256"
        }
      ],
      "name": "transferFrom",
      "outputs": [],
      "stateMutability": "nonpayable",
      "type": "function"
    },
    {
      "inputs": [
        {
          "internalType": "address",
          "name": "newOwner",
          "type": "address"
        }
      ],
      "name": "transferOwnership",
      "outputs": [],
      "stateMutability": "nonpayable",
      "type": "function"
    },
    {
      "inputs": [
        {
          "internalType": "address",
          "name": "",
          "type": "address"
        }
      ],
      "name": "userGreetingCounter",
      "outputs": [
        {
          "internalType": "uint256",
          "name": "",
          "type": "uint256"
        }
      ],
      "stateMutability": "view",
      "type": "function"
    },
    {
      "inputs": [],
      "name": "withdraw",
      "outputs": [],
      "stateMutability": "nonpayable",
      "type": "function"
    },
    {
      "stateMutability": "payable",
      "type": "receive"
    }
  ],
  "transactionHash": "0x424c06e48cb5b621dbe6fd6e20479896f5b90db058ed32a8388f80a15b682bc9",
  "args": [
    "0xE7d59892e6e179Ea4167feEd8b95D0Dc70C9C2bb"
  ],
  "numDeployments": 1,
  "solcInputHash": "f853087608c676915d3b9b8624540ac3",
  "bytecode": "0x60c0604052601c60809081527f4275696c64696e6720556e73746f707061626c6520417070732121210000000060a0526007906200003e9082620002eb565b506008805460ff1916905560006009553480156200005b57600080fd5b5060405162001ecf38038062001ecf8339810160408190526200007e91620003b7565b6040518060400160405280600d81526020016c596f7572546f6b656e4e616d6560981b815250604051806040016040528060038152602001622caa2760e91b8152508160009081620000d19190620002eb565b506001620000e08282620002eb565b505050620000fd620000f76200010f60201b60201c565b62000113565b620001088162000165565b50620003e9565b3390565b600680546001600160a01b038381166001600160a01b0319831681179093556040519116919082907f8be0079c531659141344cd1fd0a4f28419497f9722a3daafe3b4186f6b6457e090600090a35050565b6200016f620001e8565b6001600160a01b038116620001da5760405162461bcd60e51b815260206004820152602660248201527f4f776e61626c653a206e6577206f776e657220697320746865207a65726f206160448201526564647265737360d01b60648201526084015b60405180910390fd5b620001e58162000113565b50565b6006546001600160a01b03163314620002445760405162461bcd60e51b815260206004820181905260248201527f4f776e61626c653a2063616c6c6572206973206e6f7420746865206f776e65726044820152606401620001d1565b565b634e487b7160e01b600052604160045260246000fd5b600181811c908216806200027157607f821691505b6020821081036200029257634e487b7160e01b600052602260045260246000fd5b50919050565b601f821115620002e657600081815260208120601f850160051c81016020861015620002c15750805b601f850160051c820191505b81811015620002e257828155600101620002cd565b5050505b505050565b81516001600160401b0381111562000307576200030762000246565b6200031f816200031884546200025c565b8462000298565b602080601f8311600181146200035757600084156200033e5750858301515b600019600386901b1c1916600185901b178555620002e2565b600085815260208120601f198616915b82811015620003885788860151825594840194600190910190840162000367565b5085821015620003a75787850151600019600388901b60f8161c191681555b5050505050600190811b01905550565b600060208284031215620003ca57600080fd5b81516001600160a01b0381168114620003e257600080fd5b9392505050565b611ad680620003f96000396000f3fe6080604052600436106101445760003560e01c80638da5cb5b116100b6578063c87b56dd1161006f578063c87b56dd14610375578063cea49c3c14610395578063e0a73a93146103c2578063e985e9c5146103dc578063ef690cc0146103fc578063f2fde38b1461041157600080fd5b80638da5cb5b146102d957806395d89b41146102f757806397feba9d1461030c578063a22cb46514610322578063a413686214610342578063b88d4fde1461035557600080fd5b80633ccfd60b116101085780633ccfd60b1461022157806342842e0e146102365780636352211e146102565780636a6278421461027657806370a0823114610296578063715018a6146102c457600080fd5b806301ffc9a71461015057806306fdde0314610185578063081812fc146101a7578063095ea7b3146101df57806323b872dd1461020157600080fd5b3661014b57005b600080fd5b34801561015c57600080fd5b5061017061016b36600461142f565b610431565b60405190151581526020015b60405180910390f35b34801561019157600080fd5b5061019a610483565b60405161017c919061149c565b3480156101b357600080fd5b506101c76101c23660046114af565b610515565b6040516001600160a01b03909116815260200161017c565b3480156101eb57600080fd5b506101ff6101fa3660046114e4565b61053c565b005b34801561020d57600080fd5b506101ff61021c36600461150e565b610656565b34801561022d57600080fd5b506101ff610687565b34801561024257600080fd5b506101ff61025136600461150e565b61077f565b34801561026257600080fd5b506101c76102713660046114af565b61079a565b34801561028257600080fd5b506101ff61029136600461154a565b6107fa565b3480156102a257600080fd5b506102b66102b136600461154a565b61081b565b60405190815260200161017c565b3480156102d057600080fd5b506101ff6108a1565b3480156102e557600080fd5b506006546001600160a01b03166101c7565b34801561030357600080fd5b5061019a6108b5565b34801561031857600080fd5b506102b660095481565b34801561032e57600080fd5b506101ff61033d366004611565565b6108c4565b6101ff61035036600461162d565b6108d3565b34801561036157600080fd5b506101ff610370366004611676565b610996565b34801561038157600080fd5b5061019a6103903660046114af565b6109ce565b3480156103a157600080fd5b506102b66103b036600461154a565b600a6020526000908152604090205481565b3480156103ce57600080fd5b506008546101709060ff1681565b3480156103e857600080fd5b506101706103f73660046116f2565b610a42565b34801561040857600080fd5b5061019a610a70565b34801561041d57600080fd5b506101ff61042c36600461154a565b610afe565b60006001600160e01b031982166380ac58cd60e01b148061046257506001600160e01b03198216635b5e139f60e01b145b8061047d57506301ffc9a760e01b6001600160e01b03198316145b92915050565b60606000805461049290611725565b80601f01602080910402602001604051908101604052809291908181526020018280546104be90611725565b801561050b5780601f106104e05761010080835404028352916020019161050b565b820191906000526020600020905b8154815290600101906020018083116104ee57829003601f168201915b5050505050905090565b600061052082610b74565b506000908152600460205260409020546001600160a01b031690565b60006105478261079a565b9050806001600160a01b0316836001600160a01b0316036105b95760405162461bcd60e51b815260206004820152602160248201527f4552433732313a20617070726f76616c20746f2063757272656e74206f776e656044820152603960f91b60648201526084015b60405180910390fd5b336001600160a01b03821614806105d557506105d58133610a42565b6106475760405162461bcd60e51b815260206004820152603d60248201527f4552433732313a20617070726f76652063616c6c6572206973206e6f7420746f60448201527f6b656e206f776e6572206f7220617070726f76656420666f7220616c6c00000060648201526084016105b0565b6106518383610bd3565b505050565b6106603382610c41565b61067c5760405162461bcd60e51b81526004016105b09061175f565b610651838383610ca0565b6006546001600160a01b031633146106d15760405162461bcd60e51b815260206004820152600d60248201526c2737ba103a34329027bbb732b960991b60448201526064016105b0565b60006106e56006546001600160a01b031690565b6001600160a01b03164760405160006040518083038185875af1925050503d806000811461072f576040519150601f19603f3d011682016040523d82523d6000602084013e610734565b606091505b505090508061077c5760405162461bcd60e51b81526020600482015260146024820152732330b4b632b2103a379039b2b7321022ba3432b960611b60448201526064016105b0565b50565b61065183838360405180602001604052806000815250610996565b6000818152600260205260408120546001600160a01b03168061047d5760405162461bcd60e51b8152602060048201526018602482015277115490cdcc8c4e881a5b9d985b1a59081d1bdad95b88125160421b60448201526064016105b0565b600b805490600061080a836117c2565b919050555061077c81600b54610e04565b60006001600160a01b0382166108855760405162461bcd60e51b815260206004820152602960248201527f4552433732313a2061646472657373207a65726f206973206e6f7420612076616044820152683634b21037bbb732b960b91b60648201526084016105b0565b506001600160a01b031660009081526003602052604090205490565b6108a9610f8f565b6108b36000610fe9565b565b60606001805461049290611725565b6108cf33838361103b565b5050565b6108f6604051806060016040528060218152602001611a80602191398233611109565b60076109028282611829565b5060016009600082825461091691906118e9565b9091555050336000908152600a6020526040812080546001929061093b9084906118e9565b90915550506008805460ff19163480151591821790925560405133927f94cbd7e04dca26a7667654f6448b2ca0a40fec602118dc5fd8c82b9cf3c645ad9261098b92869260ff90921691906118fc565b60405180910390a250565b6109a03383610c41565b6109bc5760405162461bcd60e51b81526004016105b09061175f565b6109c884848484611150565b50505050565b60606109d982610b74565b60006109f060408051602081019091526000815290565b90506000815111610a105760405180602001604052806000815250610a3b565b80610a1a84611183565b604051602001610a2b929190611921565b6040516020818303038152906040525b9392505050565b6001600160a01b03918216600090815260056020908152604080832093909416825291909152205460ff1690565b60078054610a7d90611725565b80601f0160208091040260200160405190810160405280929190818152602001828054610aa990611725565b8015610af65780601f10610acb57610100808354040283529160200191610af6565b820191906000526020600020905b815481529060010190602001808311610ad957829003601f168201915b505050505081565b610b06610f8f565b6001600160a01b038116610b6b5760405162461bcd60e51b815260206004820152602660248201527f4f776e61626c653a206e6577206f776e657220697320746865207a65726f206160448201526564647265737360d01b60648201526084016105b0565b61077c81610fe9565b6000818152600260205260409020546001600160a01b031661077c5760405162461bcd60e51b8152602060048201526018602482015277115490cdcc8c4e881a5b9d985b1a59081d1bdad95b88125160421b60448201526064016105b0565b600081815260046020526040902080546001600160a01b0319166001600160a01b0384169081179091558190610c088261079a565b6001600160a01b03167f8c5be1e5ebec7d5bd14f71427d1e84f3dd0314c0f7b2291e5b200ac8c7c3b92560405160405180910390a45050565b600080610c4d8361079a565b9050806001600160a01b0316846001600160a01b03161480610c745750610c748185610a42565b80610c985750836001600160a01b0316610c8d84610515565b6001600160a01b0316145b949350505050565b826001600160a01b0316610cb38261079a565b6001600160a01b031614610cd95760405162461bcd60e51b81526004016105b090611950565b6001600160a01b038216610d3b5760405162461bcd60e51b8152602060048201526024808201527f4552433732313a207472616e7366657220746f20746865207a65726f206164646044820152637265737360e01b60648201526084016105b0565b826001600160a01b0316610d4e8261079a565b6001600160a01b031614610d745760405162461bcd60e51b81526004016105b090611950565b600081815260046020908152604080832080546001600160a01b03199081169091556001600160a01b0387811680865260038552838620805460001901905590871680865283862080546001019055868652600290945282852080549092168417909155905184937fddf252ad1be2c89b69c2b068fc378daa952ba7f163c4a11628f55a4df523b3ef91a4505050565b6001600160a01b038216610e5a5760405162461bcd60e51b815260206004820181905260248201527f4552433732313a206d696e7420746f20746865207a65726f206164647265737360448201526064016105b0565b6000818152600260205260409020546001600160a01b031615610ebf5760405162461bcd60e51b815260206004820152601c60248201527f4552433732313a20746f6b656e20616c7265616479206d696e7465640000000060448201526064016105b0565b6000818152600260205260409020546001600160a01b031615610f245760405162461bcd60e51b815260206004820152601c60248201527f4552433732313a20746f6b656e20616c7265616479206d696e7465640000000060448201526064016105b0565b6001600160a01b038216600081815260036020908152604080832080546001019055848352600290915280822080546001600160a01b0319168417905551839291907fddf252ad1be2c89b69c2b068fc378daa952ba7f163c4a11628f55a4df523b3ef908290a45050565b6006546001600160a01b031633146108b35760405162461bcd60e51b815260206004820181905260248201527f4f776e61626c653a2063616c6c6572206973206e6f7420746865206f776e657260448201526064016105b0565b600680546001600160a01b038381166001600160a01b0319831681179093556040519116919082907f8be0079c531659141344cd1fd0a4f28419497f9722a3daafe3b4186f6b6457e090600090a35050565b816001600160a01b0316836001600160a01b03160361109c5760405162461bcd60e51b815260206004820152601960248201527f4552433732313a20617070726f766520746f2063616c6c65720000000000000060448201526064016105b0565b6001600160a01b03838116600081815260056020908152604080832094871680845294825291829020805460ff191686151590811790915591519182527f17307eab39ab6107e8899845ad3d59bd9653f200f220920489ca2b5937696c31910160405180910390a3505050565b61065183838360405160240161112193929190611995565b60408051601f198184030181529190526020810180516001600160e01b03166395ed019560e01b179052611216565b61115b848484610ca0565b6111678484848461121f565b6109c85760405162461bcd60e51b81526004016105b0906119d3565b6060600061119083611320565b600101905060008167ffffffffffffffff8111156111b0576111b06115a1565b6040519080825280601f01601f1916602001820160405280156111da576020820181803683370190505b5090508181016020015b600019016f181899199a1a9b1b9c1cb0b131b232b360811b600a86061a8153600a85049450846111e457509392505050565b61077c816113f8565b60006001600160a01b0384163b1561131557604051630a85bd0160e11b81526001600160a01b0385169063150b7a0290611263903390899088908890600401611a25565b6020604051808303816000875af192505050801561129e575060408051601f3d908101601f1916820190925261129b91810190611a62565b60015b6112fb573d8080156112cc576040519150601f19603f3d011682016040523d82523d6000602084013e6112d1565b606091505b5080516000036112f35760405162461bcd60e51b81526004016105b0906119d3565b805181602001fd5b6001600160e01b031916630a85bd0160e11b149050610c98565b506001949350505050565b60008072184f03e93ff9f4daa797ed6e38ed64bf6a1f0160401b831061135f5772184f03e93ff9f4daa797ed6e38ed64bf6a1f0160401b830492506040015b6d04ee2d6d415b85acef8100000000831061138b576d04ee2d6d415b85acef8100000000830492506020015b662386f26fc1000083106113a957662386f26fc10000830492506010015b6305f5e10083106113c1576305f5e100830492506008015b61271083106113d557612710830492506004015b606483106113e7576064830492506002015b600a831061047d5760010192915050565b60006a636f6e736f6c652e6c6f679050600080835160208501845afa505050565b6001600160e01b03198116811461077c57600080fd5b60006020828403121561144157600080fd5b8135610a3b81611419565b60005b8381101561146757818101518382015260200161144f565b50506000910152565b6000815180845261148881602086016020860161144c565b601f01601f19169290920160200192915050565b602081526000610a3b6020830184611470565b6000602082840312156114c157600080fd5b5035919050565b80356001600160a01b03811681146114df57600080fd5b919050565b600080604083850312156114f757600080fd5b611500836114c8565b946020939093013593505050565b60008060006060848603121561152357600080fd5b61152c846114c8565b925061153a602085016114c8565b9150604084013590509250925092565b60006020828403121561155c57600080fd5b610a3b826114c8565b6000806040838503121561157857600080fd5b611581836114c8565b91506020830135801515811461159657600080fd5b809150509250929050565b634e487b7160e01b600052604160045260246000fd5b600067ffffffffffffffff808411156115d2576115d26115a1565b604051601f8501601f19908116603f011681019082821181831017156115fa576115fa6115a1565b8160405280935085815286868601111561161357600080fd5b858560208301376000602087830101525050509392505050565b60006020828403121561163f57600080fd5b813567ffffffffffffffff81111561165657600080fd5b8201601f8101841361166757600080fd5b610c98848235602084016115b7565b6000806000806080858703121561168c57600080fd5b611695856114c8565b93506116a3602086016114c8565b925060408501359150606085013567ffffffffffffffff8111156116c657600080fd5b8501601f810187136116d757600080fd5b6116e6878235602084016115b7565b91505092959194509250565b6000806040838503121561170557600080fd5b61170e836114c8565b915061171c602084016114c8565b90509250929050565b600181811c9082168061173957607f821691505b60208210810361175957634e487b7160e01b600052602260045260246000fd5b50919050565b6020808252602d908201527f4552433732313a2063616c6c6572206973206e6f7420746f6b656e206f776e6560408201526c1c881bdc88185c1c1c9bdd9959609a1b606082015260800190565b634e487b7160e01b600052601160045260246000fd5b6000600182016117d4576117d46117ac565b5060010190565b601f82111561065157600081815260208120601f850160051c810160208610156118025750805b601f850160051c820191505b818110156118215782815560010161180e565b505050505050565b815167ffffffffffffffff811115611843576118436115a1565b611857816118518454611725565b846117db565b602080601f83116001811461188c57600084156118745750858301515b600019600386901b1c1916600185901b178555611821565b600085815260208120601f198616915b828110156118bb5788860151825594840194600190910190840161189c565b50858210156118d95787850151600019600388901b60f8161c191681555b5050505050600190811b01905550565b8082018082111561047d5761047d6117ac565b60608152600061190f6060830186611470565b93151560208301525060400152919050565b6000835161193381846020880161144c565b83519083019061194781836020880161144c565b01949350505050565b60208082526025908201527f4552433732313a207472616e736665722066726f6d20696e636f72726563742060408201526437bbb732b960d91b606082015260800190565b6060815260006119a86060830186611470565b82810360208401526119ba8186611470565b91505060018060a01b0383166040830152949350505050565b60208082526032908201527f4552433732313a207472616e7366657220746f206e6f6e20455243373231526560408201527131b2b4bb32b91034b6b83632b6b2b73a32b960711b606082015260800190565b6001600160a01b0385811682528416602082015260408101839052608060608201819052600090611a5890830184611470565b9695505050505050565b600060208284031215611a7457600080fd5b8151610a3b8161141956fe53657474696e67206e6577206772656574696e6720272573272066726f6d202573a2646970667358221220d9e63b6250ac97070d9a4c35c6926423407b737a0fe7928d2cc362f29beac47364736f6c63430008110033",
  "devdoc": {
    "author": "BuidlGuidl",
    "kind": "dev",
    "methods": {
      "approve(address,uint256)": {
        "details": "See {IERC721-approve}."
      },
      "balanceOf(address)": {
        "details": "See {IERC721-balanceOf}."
      },
      "getApproved(uint256)": {
        "details": "See {IERC721-getApproved}."
      },
      "isApprovedForAll(address,address)": {
        "details": "See {IERC721-isApprovedForAll}."
      },
      "mint(address)": {
        "params": {
          "to": "The address that will own the minted token"
        }
      },
      "name()": {
        "details": "See {IERC721Metadata-name}."
      },
      "owner()": {
        "details": "Returns the address of the current owner."
      },
      "ownerOf(uint256)": {
        "details": "See {IERC721-ownerOf}."
      },
      "renounceOwnership()": {
        "details": "Leaves the contract without owner. It will not be possible to call `onlyOwner` functions. Can only be called by the current owner. NOTE: Renouncing ownership will leave the contract without an owner, thereby disabling any functionality that is only available to the owner."
      },
      "safeTransferFrom(address,address,uint256)": {
        "details": "See {IERC721-safeTransferFrom}."
      },
      "safeTransferFrom(address,address,uint256,bytes)": {
        "details": "See {IERC721-safeTransferFrom}."
      },
      "setApprovalForAll(address,bool)": {
        "details": "See {IERC721-setApprovalForAll}."
      },
      "setGreeting(string)": {
        "params": {
          "_newGreeting": "(string memory) - new greeting to save on the contract"
        }
      },
      "supportsInterface(bytes4)": {
        "details": "See {IERC165-supportsInterface}."
      },
      "symbol()": {
        "details": "See {IERC721Metadata-symbol}."
      },
      "tokenURI(uint256)": {
        "details": "See {IERC721Metadata-tokenURI}."
      },
      "transferFrom(address,address,uint256)": {
        "details": "See {IERC721-transferFrom}."
      },
      "transferOwnership(address)": {
        "details": "Transfers ownership of the contract to a new account (`newOwner`). Can only be called by the current owner."
      }
    },
    "version": 1
  },
  "userdoc": {
    "kind": "user",
    "methods": {
      "mint(address)": {
        "notice": "Mint function to create a new token"
      },
      "setGreeting(string)": {
        "notice": "Function that allows anyone to change the state variable \"greeting\" of the contract and increase the counters"
      },
      "withdraw()": {
        "notice": "Function that allows the owner to withdraw all the Ether in the contract The function can only be called by the owner of the contract as defined by the isOwner modifier"
      }
    },
    "notice": "A smart contract that allows changing a state variable of the contract and tracking the changes It also allows the owner to withdraw the Ether in the contract",
    "version": 1
  },
  "storageLayout": {
    "storage": [
      {
        "astId": 138,
        "contract": "contracts/YourContract.sol:YourContract",
        "label": "_name",
        "offset": 0,
        "slot": "0",
        "type": "t_string_storage"
      },
      {
        "astId": 140,
        "contract": "contracts/YourContract.sol:YourContract",
        "label": "_symbol",
        "offset": 0,
        "slot": "1",
        "type": "t_string_storage"
      },
      {
        "astId": 144,
        "contract": "contracts/YourContract.sol:YourContract",
        "label": "_owners",
        "offset": 0,
        "slot": "2",
        "type": "t_mapping(t_uint256,t_address)"
      },
      {
        "astId": 148,
        "contract": "contracts/YourContract.sol:YourContract",
        "label": "_balances",
        "offset": 0,
        "slot": "3",
        "type": "t_mapping(t_address,t_uint256)"
      },
      {
        "astId": 152,
        "contract": "contracts/YourContract.sol:YourContract",
        "label": "_tokenApprovals",
        "offset": 0,
        "slot": "4",
        "type": "t_mapping(t_uint256,t_address)"
      },
      {
        "astId": 158,
        "contract": "contracts/YourContract.sol:YourContract",
        "label": "_operatorApprovals",
        "offset": 0,
        "slot": "5",
        "type": "t_mapping(t_address,t_mapping(t_address,t_bool))"
      },
      {
        "astId": 7,
        "contract": "contracts/YourContract.sol:YourContract",
        "label": "_owner",
        "offset": 0,
        "slot": "6",
        "type": "t_address"
      },
      {
        "astId": 2801,
        "contract": "contracts/YourContract.sol:YourContract",
        "label": "greeting",
        "offset": 0,
        "slot": "7",
        "type": "t_string_storage"
      },
      {
        "astId": 2804,
        "contract": "contracts/YourContract.sol:YourContract",
        "label": "premium",
        "offset": 0,
        "slot": "8",
        "type": "t_bool"
      },
      {
        "astId": 2807,
        "contract": "contracts/YourContract.sol:YourContract",
        "label": "totalCounter",
        "offset": 0,
        "slot": "9",
        "type": "t_uint256"
      },
      {
        "astId": 2811,
        "contract": "contracts/YourContract.sol:YourContract",
        "label": "userGreetingCounter",
        "offset": 0,
        "slot": "10",
        "type": "t_mapping(t_address,t_uint256)"
      },
      {
        "astId": 2813,
        "contract": "contracts/YourContract.sol:YourContract",
        "label": "_tokenIdCounter",
        "offset": 0,
        "slot": "11",
        "type": "t_uint256"
      }
    ],
    "types": {
      "t_address": {
        "encoding": "inplace",
        "label": "address",
        "numberOfBytes": "20"
      },
      "t_bool": {
        "encoding": "inplace",
        "label": "bool",
        "numberOfBytes": "1"
      },
      "t_mapping(t_address,t_bool)": {
        "encoding": "mapping",
        "key": "t_address",
        "label": "mapping(address => bool)",
        "numberOfBytes": "32",
        "value": "t_bool"
      },
      "t_mapping(t_address,t_mapping(t_address,t_bool))": {
        "encoding": "mapping",
        "key": "t_address",
        "label": "mapping(address => mapping(address => bool))",
        "numberOfBytes": "32",
        "value": "t_mapping(t_address,t_bool)"
      },
      "t_mapping(t_address,t_uint256)": {
        "encoding": "mapping",
        "key": "t_address",
        "label": "mapping(address => uint256)",
        "numberOfBytes": "32",
        "value": "t_uint256"
      },
      "t_mapping(t_uint256,t_address)": {
        "encoding": "mapping",
        "key": "t_uint256",
        "label": "mapping(uint256 => address)",
        "numberOfBytes": "32",
        "value": "t_address"
      },
      "t_string_storage": {
        "encoding": "bytes",
        "label": "string",
        "numberOfBytes": "32"
      },
      "t_uint256": {
        "encoding": "inplace",
        "label": "uint256",
        "numberOfBytes": "32"
      }
    }
  }
}